:100000000EC028C027C082C225C024C023C022C081
:1000100021C020C01FC01EC01DC033C04EC011244F
:100020001FBECFE5D1E0DEBFCDBF10E0A0E6B0E05F
:10003000E0EDF6E002C005900D92A236B107D9F7C7
:1000400020E0A2E6B0E001C01D92AE3CB207E1F7AD
:100050006CD23CC3D5CFF89487B3856087BBC29A76
:10006000C09AB89888EA8DB980EF8EB978940895CF
:10007000F8941DB8BA98789408958093CC00EBDF7B
:1000800008951F920F920FB60F9211248F93109222
:10009000CD00B898B29B02C0B09BFCCFB09903C012
:1000A00088EF8DB902C088EA8DB980EF8EB98F9143
:1000B0000F900FBE0F901F9018951F920F920FB6C2
:1000C0000F9211242F933F934F935F936F937F93DE
:1000D0008F939F93AF93BF93EF93FF938091CD0046
:1000E000823009F477C028F4882359F0813091F1E7
:1000F000C5C0843009F476C028F1853009F479C090
:10010000BDC08FB1882349F08FB12091CC0090E021
:100110008E7F30E08217930781F4789B04C081E0E2
:100120008093CD0005C084E08093CD0010926A00DA
:100130001FB8B89A8EE78EB9A1C088EA8DB980E75A
:100140008EB99CC08FB1882329F088EA8DB980E7E9
:100150008EB994C080916A008230C9F028F4882357
:1001600041F0813059F01EC08330A9F08430B9F0DD
:1001700019C01092CB0081E080936A008091CB007F
:1001800062E670E0A7D1809162008FB90BC08091C8
:1001900063008FB907C0809164008FB903C080915C
:1001A00065008FB980916A008F5F80936A008091AB
:1001B0006A00853040F08091CB008F5F8093CB0048
:1001C00081E080936A0082E08093CD00B89A80E756
:1001D0008EB954C083E08093CD001FB8B8988EE7E5
:1001E0008EB94CC085E08093CD00B89880E78EB979
:1001F00045C09FB180916A00823089F028F488233D
:1002000041F0813049F013C0833061F0843069F0EF
:100210000EC09093CB000BC09093660008C09093E3
:10022000670005C09093680002C0909369008091B8
:100230006A00843059F48091CB004091660050915F
:100240006700609168007091690031D180916A0007
:100250008F5F80936A0080916A00853040F08091C2
:10026000CB008F5F8093CB0081E080936A0084E0B5
:100270008093CD001FB8B89A8EE78EB9FF91EF91A9
:10028000BF91AF919F918F917F916F915F914F91AE
:100290003F912F910F900FBE0F901F901895FC016A
:1002A000423010F4608308952081621738F4822F61
:1002B000861B642FEBD1281B20830895862F821B79
:1002C000642FE4D1280F20830895FC01362F822F5C
:1002D0008F7311F460830895841302C060830895BE
:1002E0006695669570E090E0C0D1642F70E0DAD139
:1002F000832F90E09C01261B3109208308955F9293
:100300006F927F928F929F92AF92BF92CF92DF9225
:10031000EF92FF920F931F93CF93DF93CBE6D0E042
:100320000F2EF8EAAF2EF0E0BF2EF02D0F2EF7EAD9
:10033000EF2EF0E0FF2EF02D0F2EF9EACF2EF0E099
:10034000DF2EF02D0F2EFBEC8F2EF0E09F2EF02DE8
:1003500055245394612C8E018B81982F9F73792E95
:100360008295869586958370813089F030F0823051
:1003700011F1833009F442C068C08981F50180839E
:100380008881F70180838A81F60180835EC0492FCE
:100390006981C50184DF472D6881C70180DF472D52
:1003A0006A81C6017CDF8FEF870D19F080648B8333
:1003B0004CC01B824AC08C81811117C0F50190810D
:1003C000992311F0108255C09981F501908351C095
:1003D000F701108254C0F8019081F70190834FC05B
:1003E000F601108202C0F60120838F5F871518F492
:1003F000F80184832AC0F801148227C02C81492F78
:100400006981C50162DF2C81472D6881C7015DDFED
:100410002C81472D6A81C60158DF9C81892F8F73FB
:1004200099232CF4882341F08150952D08C078162B
:1004300029F08F5F962D03C0962D01C0952D9795BD
:1004400099279795892BF80184832596F3E0AF0EC1
:10045000B11C83E0E80EF11C93E0C90ED11CE81436
:10046000F90409F078CF6CE070E087EA90E0A4D05E
:100470000EC0F7019081992309F4ADCFA9CFF801FF
:100480002281F6019081992309F4ADCFA9CFDF91A4
:10049000CF911F910F91FF90EF90DF90CF90BF9081
:1004A000AF909F908F907F906F905F9008958C3069
:1004B00080F490E0FC01EE0FFF1FEE0FFF1F8E0F88
:1004C0009F1FFC01E559FF4F418350836283738373
:1004D00014820895DB018C30C0F490E0FC01EE0F33
:1004E000FF1FEE0FFF1F8E0F9F1FFC01E559FF4FEF
:1004F00081818C93808111968C93119782811296C1
:100500008C931297838113968C9308951F920F9268
:100510000FB60F9211248F9381E0809361008F9129
:100520000F900FBE0F901F901895D5E005E015E0D5
:10053000C0E04D2F502F612F70E08C2FB8DFCF5FC0
:10054000CC30B9F7DCDE6CE070E087EA90E034D0C4
:1005500086E493DD89B78F7B89BFDDE1C1E012E0DE
:10056000809161008823E1F3813019F4C8DE109294
:10057000610086B383FB882780F99091600089171A
:1005800079F380936000B39B07C089B78F7B89BFE5
:1005900062DD10936100E4CFF89480B7806880BF7B
:1005A00080B78B6080BFDDBD89B7806489BF7894D8
:1005B0005FDDC0936100D4CFAC01CB01880F991FE0
:1005C000680F791F87B328B32D7F38B3326097B394
:1005D000982B926097BBAFB7F8946115710509F439
:1005E0003DC0FA01640F751F919188E038BB00C0CF
:1005F00000C000C000C000C000C000C000C000C0FB
:1006000000C000C000C000C000C000C097FF28BBF1
:10061000990F000000C000C000C000C000C000C0B2
:1006200000C000C000C000C000C000C000C000C0CA
:1006300000C028BB00C000C000C000C000C000C097
:1006400000C000C000C000C000C000C000C000C0AA
:100650008A9561F6E617F70709F0C6CFAFBF789421
:1006600080E18A95F1F700C008950024552704C061
:10067000080E591F880F991F009729F076956795E6
:10068000B8F37105B9F7802D952F0895991B79E07E
:1006900004C0991F961708F0961B881F7A95C9F712
:1006A00080950895AA1BBB1B51E107C0AA1FBB1F61
:1006B000A617B70710F0A61BB70B881F991F5A95EE
:1006C000A9F780959095BC01CD010895F894FFCFCE
:0206D000010225
:00000001FF
